:020000040800F2
:10000000000005248D1000089D090008A3090008C0
:10001000A9090008AF090008B509000800000000A0
:10002000000000000000000000000000BB09000804
:10003000C909000800000000D7090008E509000808
:10004000DD100008DD100008DD100008DD100008DC
:10005000DD100008DD100008DD100008DD100008CC
:10006000DD100008DD100008DD100008DD100008BC
:10007000DD100008DD100008DD100008DD100008AC
:10008000DD100008DD100008DD100008DD1000089C
:10009000DD100008DD100008DD100008DD1000088C
:1000A000DD100008F1090008DD100008DD1000086F
:1000B000DD100008DD100008DD100008DD1000086C
:1000C000DD100008DD100008DD100008DD1000085C
:1000D000DD100008DD100008DD100008DD1000084C
:1000E000DD100008DD10000800000000DD10000831
:1000F000DD100008DD100008DD100008DD1000082C
:10010000DD100008DD100008DD100008DD1000081B
:10011000DD100008DD100008DD100008DD1000080B
:10012000DD100008DD100008DD100008DD100008FB
:10013000DD100008150A0008DD100008DD100008B9
:1001400000000000000000000000000000000000AF
:10015000DD100008DD100008DD100008DD100008CB
:10016000DD100008DD100008DD100008DD100008BB
:10017000DD100008DD100008DD10000800000000A0
:10018000DD100008DD100008DD100008DD1000089B
:10019000DD100008DD100008DD100008DD1000088B
:1001A000DD100008DD100008DD1000080000000070
:1001B000DD100008DD100008DD100008DD1000086B
:1001C000DD100008DD100008000000000000000045
:1001D0000000000000000000DD100008000000002A
:1001E000000000000000000000000000000000000F
:1001F0000000000000000000DD100008DD10000815
:10020000DD100008DD10000800000000DD1000080F
:10021000DD100008DD100008DD100008DD1000080A
:10022000DD10000800000000DD10000800000000E4
:10023000DD100008DD10000800000000DD100008DF
:10024000DD100008DD100008DD100008DD100008DA
:10025000DD100008DD100008DD100008DD100008CA
:10026000DD100008DD100008DD100008DD100008BA
:10027000DD100008DD100008DD100008000000009F
:10028000DD100008DD100008DD100008DD1000089A
:1002900000000000DD100008DD1000080000000074
:1002A00000000000DD100008DD100008DD1000086F
:1002B000DD100008DD100008DD100008DD1000086A
:0C02C000DD100008DD100008DD10000853
:1002D00010B5054C237833B9044B13B10448AFF380
:1002E00000800123237010BD98000024000000004E
:1002F000783A010808B5034B1BB103490348AFF333
:10030000008008BD000000009C000024783A01082D
:1003100001F0FF01102A2BDB10F0070F08D010F8B6
:10032000013B013A8B422DD010F0070F42B3F6D1BA
:10033000F0B441EA012141EA014122F007047FF0D3
:1003400000070023F0E80256083C85EA010586EA2A
:10035000010685FA47F5A3FA87F586FA47F6A5FA66
:1003600087F68EB9EED1F0BC01F0FF0102F0070272
:1003700032B110F8013B013A83EA010313B1F8D11D
:100380000020704701387047002D06BF35460338FE
:10039000073815F0010F07D1013015F4807F02BF37
:1003A000013015F4C03F0130F0BC0138704700BF88
:1003B00080B584B000AF00F055FA3C4B5B6903F4A4
:1003C0000033002B1BD1BFF34F8F00BFBFF36F8FE4
:1003D00000BF364B0022C3F85022BFF34F8F00BF3F
:1003E000BFF36F8F00BF314B5B69304A43F400337A
:1003F0005361BFF34F8F00BFBFF36F8F00E000BFAB
:100400002A4B5B6903F48033002B38D1274B002241
:10041000C3F88420BFF34F8F00BF244BD3F8803044
:10042000FB60FB685B0BC3F30E03BB60FB68DB0880
:10043000C3F309037B60BB685A0143F6E0731340C2
:100440007A68920719491343C1F860327B685A1ED3
:100450007A60002BEFD1BB685A1EBA60002BE5D141
:10046000BFF34F8F00BF114B5B69104A43F48033D9
:100470005361BFF34F8F00BFBFF36F8F00E000BF2A
:1004800000F08EFF00F018F800F0D8F804F006FD38
:1004900000F080F8064804F03DF800F049FC0548FB
:1004A00004F07EFE0DF050F9F9E700BF00ED00E02A
:1004B000B40000241401002480B59CB000AF07F103
:1004C00024034C220021184612F0CAF83B1D2022BA
:1004D0000021184612F0C4F8022003F07BF8002334
:1004E0003B602B4B9B692A4A23F440439361284B82
:1004F0009B6903F440433B603B6800BF244B9B690E
:1005000003F40053B3F5005FF8D101237B624FF48D
:100510008033BB620223BB640223FB6401233B657F
:1005200044237B650123BB650423FB6502233B66F3
:100530000C237B660023BB664FF4C053FB6607F1B8
:100540002403184603F080F80346002B01D000F086
:10055000DDF93F237B600323BB600023FB6008239E
:100560003B6140237B614023BB614FF48063FB61AF
:1005700040233B623B1D0321184603F013FC034656
:10058000002B01D000F0C2F900BF7037BD4680BD1E
:100590000048025880B588B000AF07F11003002270
:1005A0001A605A609A60DA603B1D00221A605A6035
:1005B0009A60204B204A1A601E4B46F66B325A60F6
:1005C0001C4B00229A601B4B42F20F72DA60194BEF
:1005D00000221A61174B00225A61164B80229A6141
:1005E000144803F03FFF0346002B01D000F08EF9C2
:1005F0004FF480533B6107F1100319460D4804F096
:100600002FF90346002B01D000F080F900237B6016
:100610000023BB600023FB603B1D1946054804F026
:1006200083FB0346002B01D000F070F900BF203798
:10063000BD4680BDB40000240000014080B58CB0F0
:1006400000AF07F11C0300221A605A609A60DA605A
:100650001A617D4BD3F8E0307B4A43F00403C2F8C3
:10066000E030794BD3F8E03003F00403BB61BB69A1
:10067000754BD3F8E030744A43F08003C2F8E030A1
:10068000714BD3F8E03003F080037B617B696E4BE4
:10069000D3F8E0306C4A43F00103C2F8E0306A4B13
:1006A000D3F8E03003F001033B613B69664BD3F8BC
:1006B000E030654A43F00203C2F8E030624BD3F801
:1006C000E03003F00203FB60FB685F4BD3F8E030DF
:1006D0005D4A43F00803C2F8E0305B4BD3F8E030EA
:1006E00003F00803BB60BB68574BD3F8E030564AB1
:1006F00043F04003C2F8E030534BD3F8E03003F04E
:1007000040037B607B68504BD3F8E0304E4A43F0A7
:100710001003C2F8E0304C4BD3F8E03003F0100384
:100720003B603B68002244F20101484802F01EFF92
:1007300000224FF48061464802F018FF00224FF477
:100740008061444802F012FF00220221424802F078
:100750000DFF4FF40053FB6100233B6200237B62DB
:1007600007F11C0319463B4802F058FD44F201030F
:10077000FB6101233B6200237B620023BB6207F124
:100780001C031946314802F049FD4FF44073FB61E8
:1007900002233B6200237B620023BB620723FB62D0
:1007A00007F11C0319462A4802F038FD4FF4806314
:1007B000FB6101233B6200237B620023BB6207F1E4
:1007C0001C031946224802F029FD8023FB614FF4E7
:1007D00088133B6200237B6207F11C0319461F4804
:1007E00002F01CFD4FF48063FB6102233B62002397
:1007F0007B620023BB620A23FB6207F11C031946DC
:10080000174802F00BFD4FF48063FB6101233B624C
:1008100000237B620023BB6207F11C0319460D48CD
:1008200002F0FCFC0223FB6101233B6200237B629C
:100830000023BB6207F11C031946074802F0EEFCD7
:1008400000BF3037BD4680BD004402580004025846
:10085000000C0258000802580010025800180258F4
:100860000000025880B584B000AF3B4600221A60F9
:100870005A609A60DA6000F049FF01233B70002360
:100880007B7000237B601F233B7287237B720023D6
:10089000BB720023FB7201233B7301237B73002394
:1008A000BB730023FB733B46184600F067FF012330
:1008B0007B704FF040537B600A233B7200237B72B6
:1008C0000323FB7200233B7300237B730123FB7321
:1008D0003B46184600F052FF02237B700A4B7B60B8
:1008E0000D233B720123BB7201237B730023FB7337
:1008F0003B46184600F042FF042000F01FFF00BFF7
:100900001037BD4680BD00BF0040003080B400AF4E
:1009100072B600BFFEE7000080B483B000AF0A4BA0
:10092000D3F8F430084A43F00203C2F8F430064B1F
:10093000D3F8F43003F002037B607B6800BF0C3710
:10094000BD465DF8047B70470044025880B584B012
:1009500000AF78607B681B680E4A934216D10E4B3D
:10096000D3F8F0300C4A43F00103C2F8F0300A4BE0
:10097000D3F8F03003F00103FB60FB680022002194
:10098000192000F08EFE192000F0A5FE00BF1037E0
:10099000BD4680BD000001400044025880B400AF55
:1009A000FEE780B400AFFEE780B400AFFEE780B49E
:1009B00000AFFEE780B400AFFEE780B400AF00BF39
:1009C000BD465DF8047B704780B400AF00BFBD46F4
:1009D0005DF8047B704780B400AF00BFBD465DF892
:1009E000047B704780B500AF00F04CFD00BF80BDB8
:1009F00080B500AF054800F059F90A21044802F01B
:100A0000CEFD024803F00CFE00BF80BDB400002400
:100A10000008025880B500AF024801F051FA00BF4B
:100A200080BD00BF6001002480B400AF01231846E0
:100A3000BD465DF8047B704780B483B000AF78603A
:100A40003960054B16221A604FF0FF3318460C37F9
:100A5000BD465DF8047B70474433002480B582B006
:100A600000AF78604FF0FF317868FFF7E5FFFEE7F1
:100A700080B586B000AFF860B9607A6000237B6112
:100A80000AE0AFF300800146BB685A1CBA60CAB2E4
:100A90001A707B6901337B617A697B689A42F0DB6B
:100AA0007B6818461837BD4680BD80B586B000AF5C
:100AB000F860B9607A6000237B6109E0BB685A1C6A
:100AC000BA601B781846AFF300807B6901337B6105
:100AD0007A697B689A42F1DB7B6818461837BD4615
:100AE00080BD80B483B000AF78604FF0FF3318460C
:100AF0000C37BD465DF8047B704780B483B000AF0F
:100B0000786039603B684FF400525A600023184601
:100B10000C37BD465DF8047B704780B483B000AFEE
:100B20007860012318460C37BD465DF8047B70479A
:100B300080B485B000AFF860B9607A6000231846D1
:100B40001437BD465DF8047B7047000080B487B061
:100B500000AF7860144A154BD31A7B617B693B6107
:100B6000134B1B68002B02D1114B124A1A60104B19
:100B70001A687B6813443A699A4205D20E4B0C22DC
:100B80001A604FF0FF3309E0094B1B68FB60084B0C
:100B90001A687B681344064A1360FB6818461C37C2
:100BA000BD465DF8047B704700000524000400008A
:100BB00000010024583300244433002480B400AFE3
:100BC000324BD3F88830314A43F47003C2F888308E
:100BD0002F4B1B6803F00F03062B07D82C4B1B6809
:100BE00023F00F032A4A43F007031360294B1B68C5
:100BF000284A43F001031360264B00221A61254B5B
:100C00001A682449244B13400B60214B1B6803F0E6
:100C10000803002B07D01E4B1B6823F00F031C4A50
:100C200043F0070313601B4B00229A61194B00220B
:100C3000DA61184B00221A62164B184A9A62154B59
:100C4000174ADA62134B174A1A63124B00225A638F
:100C5000104B144A9A630F4B0022DA630D4B114A72
:100C60001A640C4B00225A640A4B1B68094A23F48D
:100C700080231360074B00221A660B4B43F2D2020B
:100C80001A6000BFBD465DF8047B704700ED00E0D0
:100C900000200052004402587FEDF6EA00020202F2
:100CA0000000FF01800201010040005290B59DB09C
:100CB00000AF78601A4B1A6807F108031949184603
:100CC00011F02CFDF866164B1B68002B23D0FB6E31
:100CD0009BB2154A14684FF4C1721946362005F0CC
:100CE00055FE0346A360104B1B689B68FA6E92B2D8
:100CF00007F10801184606F099FB0C4B1B680A4ADD
:100D000012681146184600F026F9074B1B689B68CD
:100D1000184606F01FF900BF7437BD4690BD00BFEE
:100D200004010024903A0108080100240C01002469
:100D300080B582B000AF07F06DFF7860054B3B6077
:100D40003946054B1F22786807F02AF800BF08379C
:100D5000BD4680BDC0A800085D0D000880B586B006
:100D600000AFF860B9601346FB710C2005F070F815
:100D700038613B69002B23D03B6901221A703B6923
:100D8000BA685A603B6900225A703B6900229A6037
:100D90003969B86807F046FF0F49B86807F054FF93
:100DA00000220E49B86807F0B5FF0D49B86807F092
:100DB0006DFF3969B86800F043F90023FB7505E061
:100DC0003969B86800F015F9FF23FB7597F91730FA
:100DD00018461837BD4680BDE50D0008D50E000841
:100DE0001D0F000880B586B000AFF860B9607A606A
:100DF000FB70FB68002B05D1334BE02233493448AC
:100E000011F036FCFB683B617B68002B0DD13B6920
:100E100003221A703B699B68002B03D13969B868BB
:100E200000F0E7F80023FB7547E097F90330002B4B
:100E30000BD07B68002B05D03B6900229A60786854
:100E400006F088F8FB78FB7537E03B691B78012BCF
:100E500012D13B697A689A607B681B891946B86829
:100E600006F008FF3969B86800F0EAF8786806F01B
:100E700071F80023FB7520E03B691B78032B0ED132
:100E80007B681B891946B86806F0F4FE3B690022AE
:100E90009A60786806F05EF80023FB750DE07B68C9
:100EA0001B891946B86806F0E5FE3B6900229A6086
:100EB000786806F04FF80023FB7597F9173018464D
:100EC0001837BD4680BD00BFB43A0108D03A0108CA
:100ED000DC3A010880B584B000AF786039607B6887
:100EE000BB60BB68002B0ED0BB689B68002B07D192
:100EF000BB681B78032B03D1B968386800F079F818
:100F00000023FB7304E0386806F04EFEF323FB7306
:100F100097F90F3018461037BD4680BD80B586B0B2
:100F200000AFF860B9601346FB80FB687B617B69AA
:100F300000225A707B699B68002B07D17B691B7864
:100F4000032B03D17969B86800F053F800231846E1
:100F50001837BD4680BD80B586B000AF7860396077
:100F60000023FB7531E03B689B683B613B69596836
:100F70003B695A89012378680AF07EFD0346FB75B8
:100F800097F91730002B18D13B695B89FB813B69CE
:100F90001A683B689A603B689B68002B04D03B68EA
:100FA0009B68184606F076F8386905F0D3FF0346CB
:100FB0007B737B7B002BF7D007E097F91730B3F1F9
:100FC000FF3F02D13B683A699A6097F91730002BCE
:100FD0000BD13B689B68002B07D03B689B685A8904
:100FE0007B68B3F864309A42BDD900BF1837BD465C
:100FF00080BD80B582B000AF78603960002178682C
:1010000007F010FE0021786807F040FE00217868A4
:1010100007F01AFE0021786807F05AFE002200212E
:10102000786807F077FE3B68002B02D0386804F040
:10103000A9FD786806F0CEFC00BF0837BD4680BD2C
:1010400080B586B000AF786039607B685B68FB6014
:101050007B681B8BFB8207F10C03184610F000FB2A
:101060003861074A3B681360064A7B681360064B89
:101070001B680133044A136000BF1837BD4680BDAA
:10108000080100240C01002404010024DFF834D0FE
:10109000FFF794FD0C480D490D4A002302E0D45897
:1010A000C4500433C4188C42F9D30A4A0A4C0023B2
:1010B00001E013600432A242FBD311F075FAFFF78E
:1010C00077F97047000005240000002498000024F0
:1010D000E86A01089800002454330024FEE780B435
:1010E00083B000AF786039607B68002B0BD03B6821
:1010F000DB68002B07D03B689B68002B03D03B6864
:101100001B69002B02D14FF0FF3314E03B681A68D3
:101110007B689A603B685A687B68DA603B68DA688B
:101120007B685A613B689A687B681A613B681A69F8
:101130007B689A61002318460C37BD465DF8047B36
:10114000704780B586B000AF78600023FB60002355
:10115000BB6000237B6100233B617B685B68002BE5
:101160007CD17B689B68002B02D07B689B6898478A
:101170007B6820221A6000237B611CE07B685B692E
:1011800007F108021221786998470346002B03DA19
:101190006FF004033B610BE0BB6803F01F037A6947
:1011A0009A4205D17B687A691A6000233B6105E0A9
:1011B0007B6901337B617B691F2BDFD97B681B68EF
:1011C0001F2B02D96FF002033B613B69002B45D115
:1011D0007B681B697A6810684FF4004200219847C9
:1011E0000346002B37DB7B685B697A68106807F180
:1011F0000802002198470346002B28DB7B689B6987
:1012000098470346FB601CE07B689B699847034650
:101210001A46FB68D31AB3F5FA7F0ED87B685B6970
:101220007A68106807F10802002198470346002BEE
:1012300007DA6FF004033B6110E06FF001033B61DC
:101240000CE0BB6803F40043002BDDD106E06FF037
:1012500004033B6102E06FF003033B613B69002B39
:1012600012D17B689B6998470346FB6000BF7B688F
:101270009B69984703461A46FB68D31AB3F5FA6F81
:10128000F5D97B6801225A603B6918461837BD467C
:1012900080BD80B584B000AF78600023FB607B68C0
:1012A0005B697A68106807F10C02012198470346D0
:1012B000002B02DA6FF004036EE07B685B697A68EA
:1012C000106807F10C02012198470346002B02DA4F
:1012D0006FF0040360E0FB6803F00403002B01D10E
:1012E000012359E07B685B697A68106807F10C029A
:1012F000002198470346002B02DA6FF004034BE00D
:10130000FB6803F48053002B1BD1FB6803F40053EC
:10131000002B06D0FB6803F48073002B01D002235E
:101320003AE0FB6803F40053002B01D0032333E0C1
:10133000FB6803F48073002B01D004232CE0052309
:101340002AE07B685B697A68106807F10C021F214C
:1013500098470346002B02DA6FF004031CE0FB6899
:1013600003F48053002B01D1062315E0FB6803F042
:101370001C03182B01D102230EE0FB6803F01C03B1
:10138000082B01D1032307E0FB6803F01C03142B97
:1013900001D1042300E0052318461037BD4680BD67
:1013A00080B582B000AF032000F070F902F0B0FE0B
:1013B0000246154B9B691B0A03F00F031349CB5CD4
:1013C00003F01F0322FA03F37B600F4B9B6903F0CA
:1013D0000F030E4AD35C03F01F037A6822FA03F36B
:1013E0000B4A13600B4A7B681360002000F014F86E
:1013F0000346002B01D0012302E0FFF78DFA002302
:1014000018460837BD4680BD00440258846801086C
:10141000040000240000002480B582B000AF786092
:10142000154B1B78002B01D1012321E0134B1A68C7
:10143000114B1B7819464FF47A73B3FBF1F3B2FBEF
:10144000F3F3184600F055F90346002B01D00123B1
:101450000EE07B680F2B0AD8002279684FF0FF302E
:1014600000F01FF9064A7B681360002300E00123A7
:1014700018460837BD4680BD0C000024000000243B
:101480000800002480B400AF064B1B781A46064BB8
:101490001B681344044A136000BFBD465DF8047B1B
:1014A000704700BF0C0000241001002480B400AF7E
:1014B000034B1B681846BD465DF8047B704700BFB0
:1014C0001001002480B483B000AF7860064B5B68E5
:1014D00023F4600204497B6813434B6000BF0C3760
:1014E000BD465DF8047B70470004005880B485B0A9
:1014F00000AF78607B6803F00703FB600B4BDB6891
:10150000BB60BA684FF6FF031340BB60FB681A026A
:10151000BB681A43064B1343BB60044ABB68D360E5
:1015200000BF1437BD465DF8047B704700ED00E056
:101530000000FA0580B400AF044BDB681B0A03F01F
:1015400007031846BD465DF8047B704700ED00E0D8
:1015500080B483B000AF0346FB80B7F90630002BA0
:101560000BDBFB8803F01F020749B7F906305B0964
:10157000012000FA02F241F8232000BF0C37BD46DB
:101580005DF8047B704700BF00E100E080B483B0E9
:1015900000AF03463960FB80B7F90630002B0ADB49
:1015A0003B68DAB20C49B7F906301201D2B20B44EB
:1015B00083F800230AE03B68DAB20849FB8803F0AD
:1015C0000F03043B1201D2B20B441A7600BF0C3752
:1015D000BD465DF8047B704700E100E000ED00E0EF
:1015E00080B489B000AFF860B9607A60FB6803F03E
:1015F0000703FB61FB69C3F10703042B28BF042326
:10160000BB61FB690433062B02D9FB69033B00E095
:1016100000237B614FF0FF32BB6902FA03F3DA4328
:10162000BB681A407B699A404FF0FF317B6901FA31
:1016300003F3D9437B680B40134318462437BD4658
:101640005DF8047B7047000080B582B000AF786021
:101650007B68013BB3F1807F01D301230FE00A4A8D
:101660007B68013B53600F214FF0FF30FFF78EFF87
:10167000054B00229A60044B07221A60002318468B
:101680000837BD4680BD00BF10E000E080B582B0E5
:1016900000AF78607868FFF729FF00BF0837BD46C4
:1016A00080BD80B586B000AF0346B9607A60FB812B
:1016B000FFF740FF78617A68B9687869FFF790FFB3
:1016C0000246B7F90E3011461846FFF75FFF00BF1C
:1016D0001837BD4680BD80B582B000AF0346FB80A1
:1016E000B7F906301846FFF733FF00BF0837BD468D
:1016F00080BD80B582B000AF78607868FFF7A4FF46
:10170000034618460837BD4680BD000080B400AFD0
:10171000BFF35F8F00BF074B5B6A064A23F4803339
:101720005362054B00225A6000BFBD465DF8047B42
:10173000704700BF00ED00E090ED00E080B483B0A2
:1017400000AF78600B4A7B6843F0010353600A4B9B
:101750005B6A094A43F480335362BFF34F8F00BF83
:10176000BFF36F8F00BF00BF0C37BD465DF8047B31
:10177000704700BF90ED00E000ED00E080B483B062
:1017800000AF78607B685A781D4B9A607B681B7845
:10179000002B29D01A4A7B685B68D3607B681B7B6F
:1017A0001A077B68DB7A1B061A437B689B7ADB048B
:1017B0001A437B685B7B9B041A437B689B7B5B04BF
:1017C0001A437B68DB7B1B041A437B685B7A1B0232
:1017D0001A437B681B7A5B0013437A6812781146C0
:1017E000074A0B43136105E0054B0022DA60044B06
:1017F00000221A6100BF0C37BD465DF8047B7047BC
:1018000090ED00E080B584B000AF78607B68002B7D
:1018100001D10123CFE07B68D3F88430002B06D1BF
:101820007B682322C3F88420786803F029FD644B89
:10183000D3F8F430624A43F00203C2F8F430604B4C
:10184000D3F8F43003F00203BB60BB687B681B7AFB
:10185000002B03D10020FFF735FE03E04FF400001A
:10186000FFF730FE574B5B687B681B6803F58053BE
:101870001B687A68126843F0010302F58052136016
:10188000FFF714FEF86011E0FFF710FE0246FB6858
:10189000D31AB3F5FA7F09D97B680422C3F88820EC
:1018A0007B68E022C3F88420012384E07B681B6806
:1018B00003F580531B6803F00103002BE4D1786823
:1018C00000F0E0FE02F09EFD03463F4AA2FB032328
:1018D0009A0C7B681B68013AC3F8DC20786801F039
:1018E000CBF87B681B6803F58053D3F8003123F4F1
:1018F000E0137A68126843F4002302F58052C2F8BC
:1019000000317B685B6903F00303002B09D07B681F
:101910000122C3F888207B68E022C3F884200123D9
:1019200049E07B681B6803F58053D3F80821274BF7
:1019300013407A68526951007A6812680B4302F5C5
:101940008052C2F80831786801F033F9786801F004
:1019500079F97B685B6805331B781A027B685B68E2
:1019600004331B7819467B681B680A43C3F80023BD
:101970007B685B6803331B781A067B685B680233FD
:101980001B781B041A437B685B6801331B781B02BE
:101990001A437B685B681B7819467B681B680A439F
:1019A000C3F804237B680022C3F888207B681022D8
:1019B000C3F88420002318461037BD4680BD00BF01
:1019C000004402580004005883DE1B430180FFFFDF
:1019D00080B582B000AF78607B68D3F88430102B7C
:1019E00053D17B682322C3F884207B680422DA6603
:1019F000786800F0F6F97B681B681A687B681B68DA
:101A000042F002021A607B681B681A687B681B68D8
:101A100042F001021A607B681B68D3F8002D7B68D6
:101A20001B6842F00102C3F8002D7B681B6803F5B8
:101A30008053D3F804317A68126843F0010302F549
:101A40008052C2F804317B681B6803F58053D3F8D9
:101A500008317A68126843F0010302F58052C2F837
:101A600008317B681B6803F58053D3F860317A68CE
:101A7000126843F4817302F58052C2F860317B68CA
:101A80002322C3F88420002300E0012318460837EE
:101A9000BD4680BD80B483B000AF78607B68D3F86A
:101AA0008430232B3FD17B682322C3F884207B68BA
:101AB0001B6803F58053D3F804317A68126823F069
:101AC000010302F58052C2F804317B681B6803F5FC
:101AD0008053D3F808317A68126823F0010302F5C5
:101AE0008052C2F808317B681B681A687B681B68E3
:101AF00022F001021A607B681B68D3F8002D7B6816
:101B00001B6842F00102C3F8002D7B681B681A684D
:101B10007B681B6822F002021A607B681022C3F8FF
:101B20008420002300E0012318460C37BD465DF8F1
:101B3000047B704780B586B000AFF860B9607A600A
:101B4000BB68002B09D1FB68D3F8883043F0010251
:101B5000FB68C3F8882001237FE0FB68D3F884305A
:101B6000232B79D10022B968F86801F0C9F803463F
:101B7000002B09D0FB68D3F8883043F00202FB68E1
:101B8000C3F88820012368E0BFF34F8F00BFFB68D4
:101B90009A6AFB68063253F822307B61FB689B6AC5
:101BA0005A1CFB689A62FB689B6A032B04D9FB688A
:101BB0009B6A1A1FFB689A62FB68996AFB681A683D
:101BC000FB68063153F8213002F58052C2F820310B
:101BD000FFF76CFC386139E0FB681B6803F5805344
:101BE000D3F8603103F48053002B12D0FB68D3F894
:101BF000883043F00802FB68C3F88820FB681B6844
:101C000003F58053D3F86021FB68C3F88C200123CF
:101C100023E07B68B3F1FF3F18D0FFF747FC024693
:101C20003B69D31A7A689A4202D37B68002B0DD1A4
:101C3000FB68D3F8883043F00402FB68C3F88820BF
:101C40007B694FF04052DA60012306E07B69DB6874
:101C5000002BC1DB002300E0012318461837BD46E6
:101C600080BD80B588B000AF7860396000237B61AB
:101C70000023FB733B68002B09D17B68D3F88830C5
:101C800043F001027B68C3F888200123A5E07B684C
:101C9000D3F88430232B01D001239EE07B68DB6DD9
:101CA000FB617B68FA69123253F82230BB617B68B2
:101CB000DB6EC3F10403BB6067E0BB69DB6803F064
:101CC0008043002B07D0BB695A687B689A67BB6961
:101CD0001A687B685A67BB69DB6803F00053002B06
:101CE00003D17B68DB6F002B3DD0BB69DB6803F061
:101CF0000053002B05D07B6800221A667B68002207
:101D00005A667B685B693B61BB69DB6803F08053A3
:101D1000002B0DD0BB69DB68C3F30E027B685B6EE2
:101D2000D31A3B61BB69DA687B681A670123FB73CE
:101D30007B6803F17C007B6803F18001BB691B6950
:101D40001A463B699BB203F07BFC7B681B6E5A1CF6
:101D50007B681A667B685A6E3B691A447B685A66D0
:101D6000BB6900221A61FB690133FB61FB69032B2C
:101D700002D9FB69043BFB617B68FA69123253F8B4
:101D80002230BB617B6901337B61BB69DB68002B5F
:101D900006DB7A69BB689A4202D2FB7B002B8CD0AF
:101DA0007B68DA6E7B691A447B68DA667B68DB6E77
:101DB000002B02D0786800F014F87B68FA69DA65C5
:101DC000FB7B012B08D17B68DA6F3B681A607B686C
:101DD0000022DA67002300E0012318462037BD46C1
:101DE00080BD80B588B000AF78600023FB60012320
:101DF000FB747B689B6EFB617B68FA69123253F857
:101E000022307B617B68DB6EBB613BE07B691B69D9
:101E1000002B12D107F10C03184603F0E1FBFB681D
:101E2000002B02D10023FB7407E0FB681A467B6994
:101E30001A61FB681A467B691A60FB7C002B21D073
:101E4000BFF35F8F00BF7B689B6D002B04D07B6965
:101E50004FF04142DA6003E07B694FF00142DA6003
:101E6000FB690133FB61FB69032B02D9FB69043B6E
:101E7000FB617B68FA69123253F822307B61BB69DF
:101E8000013BBB61BB69002B02D0FB7C002BBDD1A9
:101E90007B68DB6EBA699A420DD07B681B6803F5DC
:101EA00080531A460023C2F828317B68FA699A6683
:101EB0007B68BA69DA6600BF2037BD4680BD000086
:101EC00080B584B000AF78607B681B6803F58053F1
:101ED000D3F8603103F04003402B15D17B681B68B9
:101EE00003F58053D3F8343103F04003402B0BD17A
:101EF0007B681B6803F580531A4648F24003C2F81A
:101F00006031786800F0F6F87B681B6803F5805351
:101F1000D3F8603103F00103012B15D17B681B68F6
:101F200003F58053D3F8343103F00103012B0BD1B7
:101F30007B681B6803F580531A4648F20103C2F818
:101F40006031786800F0CCF87B681B6803F580533B
:101F5000D3F8603103F48043B3F5804F53D17B68ED
:101F60001B6803F58053D3F8343103F48043B3F591
:101F7000804F48D17B68D3F8883043F008027B68F3
:101F8000C3F888207B681B6803F58053D3F8603161
:101F900003F48053B3F5805F1ED17B681B6803F5A3
:101FA0008053D3F8602141F2021313407A68C2F8DB
:101FB0008C307B681B6803F58053D3F834317A6822
:101FC000126823F4404302F58052C2F834317B6832
:101FD000E022C3F8842013E07B681B6803F580537C
:101FE000D3F8603103F4CD427B68C3F88C207B6862
:101FF0001B6803F580531A464FF4CD43C2F8603195
:10200000786800F081F87B681B68D3F8B430FB6017
:10201000FB6803F48043002B04D1FB6803F40053F6
:10202000002B19D07B68D3F8883043F010027B680E
:10203000C3F888207B681B68D3F8B8207B68C3F896
:1020400090207B68E022C3F88420786800F05CF878
:102050007B680022C3F890207B681B68D3F8B030FF
:1020600003F01003102B0FD17B681B68D3F8C0302E
:1020700003F060027B68C3F89420786800F04EF8A3
:102080007B680022C3F894207B681B68D3F8B030CB
:1020900003F02003202B0FD17B681B68D3F8C030DE
:1020A00003F00F027B68C3F89820786800F040F8CE
:1020B0007B680022C3F89820084B9B6A03F48003D6
:1020C000002B06D0054B4FF480029A62786800F02E
:1020D00039F800BF1037BD4680BD00BF80000058F2
:1020E00080B483B000AF786000BF0C37BD465DF8A8
:1020F000047B704780B483B000AF786000BF0C37BA
:10210000BD465DF8047B704780B483B000AF786053
:1021100000BF0C37BD465DF8047B704780B483B0C8
:1021200000AF786000BF0C37BD465DF8047B704798
:1021300080B483B000AF786000BF0C37BD465DF857
:10214000047B704780B483B000AF786000BF0C3769
:10215000BD465DF8047B704780B586B000AFF8607F
:10216000B9607A603B60FB681B68D3F8003203F00B
:102170000103002B01D001233EE0FB681B68D3F86C
:1021800000327B617B6923F07872BB685B05134387
:102190007B617B6923F4F8127B681B0413437B612A
:1021A0007B6943F00C037B617B6943F001037B6136
:1021B000FB681B687A69C3F80022FFF777F938617A
:1021C00009E0FFF773F902463B69D31AB3F57A7F4A
:1021D00001D9012310E0FB681B68D3F8003203F03B
:1021E0000103002BEDD1FB681B68D3F804329BB2CE
:1021F0001A463B681A60002318461837BD4680BD52
:1022000080B586B000AFF860B9607A603B60FB686B
:102210001B68D3F8003203F00103002B01D0012327
:102220003CE0FB681B68D3F800327B617B6923F0DC
:102230007872BB685B0513437B617B6923F4F812FA
:102240007B681B0413437B617B6923F00C0343F021
:1022500004037B617B6943F001037B613B689AB2B5
:10226000104BC3F804220F4A7B69C2F80032FFF713
:102270001DF9386109E0FFF719F902463B69D31AE5
:10228000B3F57A7F01D9012308E0FB681B68D3F816
:10229000003203F00103002BEDD10023184618375C
:1022A000BD4680BD0080024080B483B000AF78603E
:1022B00039603B68002B01D10123C3E17B681B68B7
:1022C0001B6803F00C023B68DA627B681B681B68C2
:1022D00003F01003002B14BF01230023DBB21A46C6
:1022E0003B6883F828207B681B681B6803F060024A
:1022F0003B685A627B681B681B6803F48073002B81
:102300000CBF01230023DBB21A463B6883F8202070
:102310007B681B681B6803F40073002B14BF012348
:102320000023DBB21A463B68DA777B681B681B68C0
:1023300003F48063002B0CBF01230023DBB21A4699
:102340003B689A777B681B681B6803F40063002B6B
:1023500014BF01230023DBB21A463B685A777B681F
:102360001B681B6803F48053002B14BF0123002358
:10237000DBB21A463B681A777B681B681B6803F45C
:1023800000523B689A617B681B681B6803F48042BB
:102390003B685A617B681B681B6803F48033002B21
:1023A00014BF01230023DBB21A463B689A747B6892
:1023B0001B681B6803F40033002B0CBF01230023B0
:1023C000DBB21A463B685A747B681B681B6803F4CF
:1023D0000023002B0CBF01230023DBB21A463B680D
:1023E0001A747B681B681B6803F48013002B14BFEE
:1023F00001230023DBB21A463B68DA737B681B6853
:102400001B6803F40013002B14BF01230023DBB26D
:102410001A463B689A737B681B681B6803F4800349
:10242000002B14BF01230023DBB21A463B685A730A
:102430007B681B681B6803F40003002B14BF012397
:102440000023DBB21A463B681A737B681B681B6863
:1024500003F0E0623B689A607B681B681B6803F0CE
:102460000063002B14BF01230023DBB21A463B6834
:102470001A717B681B681B6803F0E0423B681A60B6
:102480007B681B685B68C3F30D023B685A637B681B
:102490001B685B6803F48033002B0CBF012300230F
:1024A000DBB21A463B6883F832207B681B685B68A6
:1024B00003F40033002B14BF01230023DBB21A46C0
:1024C0003B6883F831207B681B685B6803F48023DA
:1024D000002B14BF01230023DBB21A463B6883F8AC
:1024E00030207B681B685B6803F08073002B14BF8F
:1024F00001230023DBB21A463B6883F838207B684F
:102500001B685B685B0E03F01F023B68DA637B6845
:102510001B68DB6803F48073002B14BF01230023C6
:10252000DBB21A463B6883F840207B681B68DB6897
:1025300003F00F023B685A647B681B681B6F03F053
:102540000203002B14BF01230023DBB21A463B68B1
:1025500083F854207B681B681B6F03F08003002BFB
:102560000CBF01230023DBB21A463B6883F84C20E2
:102570007B681B681B6F03F070023B681A657B6801
:102580001B681B6F1B0C9AB23B689A647B681B68C4
:10259000D3F8903003F00103002B14BF0123002374
:1025A000DBB21A463B6883F856207B681B68D3F879
:1025B000903003F00203002B14BF01230023DBB291
:1025C0001A463B6883F855207B681B68D3F8003DAA
:1025D00003F072023B689A657B681B68D3F8303D54
:1025E00003F023023B68DA657B681B68D3F8303D53
:1025F00003F00803002B14BF01230023DBB21A46AB
:102600003B6883F862207B681B68D3F8303D03F099
:102610001003002B14BF01230023DBB21A463B68D2
:1026200083F861207B681B68D3F8303D03F04003DA
:10263000002B0CBF01230023DBB21A463B6883F852
:102640006020002318460C37BD465DF8047B7047B8
:1026500080B582B000AF786039603B68002B01D153
:1026600001230BE07B68D3F88430102B05D1396847
:10267000786800F05FF8002300E00123184608376F
:10268000BD4680BD80B584B000AF78607B681B68B4
:10269000D3F80032FB60FB6823F47063FB6001F049
:1026A000B1FEB860BB681E4A934208D9BB681D4A98
:1026B000934204D8FB6843F40073FB6027E0BB68D7
:1026C000184A934208D9BB68174A934204D2FB6860
:1026D00043F44073FB601AE0BB68134A934203D390
:1026E000BB68124A934211D9BB68104A934208D979
:1026F000BB680F4A934204D8FB6843F48073FB60C5
:1027000005E0FB6843F48063FB6000E000BF7B688A
:102710001B68FA68C3F8002200BF1037BD4680BDB1
:10272000FF2C3101BF0E160200879303FFE0F50571
:102730007FD1F00880B485B000AF786039603B6825
:102740009A683B681B681A433B681B79DB061A438F
:102750003B681B7BDB051A433B685B7B9B051A438D
:102760003B689B7B5B051A433B68DB7B1B05134384
:102770003A68127C002A02D14FF4002200E00022C5
:1027800013433A68527C002A02D14FF4003200E031
:1027900000221A433B689B7C1B041A433B685B691D
:1027A0001A433B689B691A433B681B7F1B031A4310
:1027B0003B685B7FDB0213433A68927F002A02D1B9
:1027C0004FF4806200E000221A433B68DB7F5B022B
:1027D00013433A6892F82020002A02D14FF4807205
:1027E00000E000221A433B685B6A1A433B6893F897
:1027F00028301B011A433B68DB6A1343FB607B688C
:102800001B681A68564B13407A681268F9680B43C4
:1028100013603B68DB6B5A063B6893F838301B0645
:102820001A433B6893F830309B041A433B6893F893
:1028300031305B0413433A6892F83220002A02D107
:102840004FF4803200E000221A433B685B6B134375
:10285000FB607B681B685A68424B13407A681268B9
:10286000F9680B4353603B6893F840301A023B68A9
:102870005B6C1343FB607B681B68DA683A4B134060
:102880007A681268F9680B43D3603B6893F8543058
:102890005A003B681B6D13433A6892F84C20002A9B
:1028A00001D1802200E000221A433B689B6C1B048C
:1028B0001343FB607B681B681A6F4FF60D73134060
:1028C0007A681268F9680B4313673B6893F85630CF
:1028D0001A463B6893F855305B001343FB607B68F6
:1028E0001B68D3F8903023F003017B681B68FA68FB
:1028F0000A43C3F890207B681B68D3F8003D23F09F
:1029000072013B689A6D7B681B680A43C3F8002D0F
:102910003B68DB6D3A6892F86020002A01D14022C2
:1029200000E000221A433B6893F861301B011A4310
:102930003B6893F86230DB001343FB607B681B68E5
:10294000D3F8303D23F07B017B681B68FA680A43AB
:10295000C3F8302D00BF1437BD465DF8047B7047C7
:10296000838004000080F8C0F0FEFFFF80B485B0D3
:1029700000AF786039607B681B6803F580531A6884
:10298000384B13403A6811687A6812680B4302F5B5
:10299000805213603B681B791A033B689B681A439B
:1029A0003B681B7BDB031343FB607B681B6803F501
:1029B00080535A682C4B13407A681268F9680B43AD
:1029C00002F5805253603B685B7B1A043B681B6ACC
:1029D0001343FB607B681B6803F58053D3F8002129
:1029E000224B13407A681268F9680B4302F5805253
:1029F000C2F800313B681A693B681B7D1B011A4312
:102A00003B685B7F1B031343FB607B681B6803F51C
:102A10008053D3F80421164B13407A681268F96882
:102A20000B4302F58052C2F804313B681B7FDA0782
:102A30003B689B691343FB607B681B6803F580530D
:102A4000D3F808210B4B13407A681268F9680B43DE
:102A500002F58052C2F8083100BF1437BD465DF858
:102A6000047B7047FD87FFFFFE2FFFFF00C0FEFFC6
:102A7000EFEFC0FFFFFFC07F80B5A4B000AF78606C
:102A8000012387F83B3000233B65002387F849305A
:102A9000002387F84B30012387F83030012387F873
:102AA0005E30012387F83A30002387F85430012341
:102AB00087F88C304FF400537B64002387F8643030
:102AC0000023BB66002387F88D30002387F88E3003
:102AD0004FF4C3633B66002387F8383000237B63E1
:102AE000012387F83D30002387F83E30002387F824
:102AF00048300023FB6700237B670023BB6500236E
:102B000087F86C30002387F88230012387F84A3039
:102B10002023C7F88830012387F84C30002387F83A
:102B20005D304FF04053FB624FF480433B64002321
:102B300087F839300223C7F88430002387F88030C3
:102B4000002387F88130002387F85C30012387F861
:102B50003C3000233B67012387F8783007F12C03D2
:102B600019467868FFF7E6FD01233B7301233B61BB
:102B70000023BB60002387F8243000237B750023EB
:102B80003B754FF400133B6200233B774FF4001377
:102B9000BB61002387F825304FF40673BB6207F151
:102BA000080319467868FFF7E1FE00BF9037BD467D
:102BB00080BD80B485B000AF78600023FB601DE06D
:102BC0007B68D968FA6813465B001344DB000B444A
:102BD000BB60BB6800221A60BB6800225A60BB68F9
:102BE00000229A60BB680022DA60B9687B68FA68E4
:102BF000063243F82210FB680133FB60FB68032BAD
:102C0000DED97B6800229A627B681B6803F58053DB
:102C10001A460323C2F82C317B68DA687B681B688C
:102C200003F58053C3F814217B68DA687B681B685E
:102C300003F58053C3F8202100BF1437BD465DF86B
:102C4000047B704780B485B000AF78600023FB60E0
:102C500023E07B681969FA6813465B001344DB00C4
:102C60000B44BB60BB6800221A60BB6800225A603C
:102C7000BB6800229A60BB680022DA60BB68002251
:102C80001A61BB6800225A61B9687B68FA6812321F
:102C900043F82210FB680133FB60FB68032BD8D993
:102CA0007B680022DA657B6800221A667B68002256
:102CB0009A667B680022DA667B6800229A657B68E8
:102CC0001B6803F580531A460323C2F830317B6832
:102CD0001A697B681B6803F58053C3F81C217B6865
:102CE0001B6903F148027B681B6803F58053C3F836
:102CF000282100BF1437BD465DF8047B70470000F3
:102D000080B48DB000AFF860B9607A60FB681833AA
:102D10007B617B691B69FB627B691B693B610023EB
:102D20007B627B69FA6A53F822303B62BB689B681E
:102D3000FB610023BB613B6ADB6803F00043B3F136
:102D4000004F07D07A69FB6A04339B0013445B6829
:102D5000002B01D0022359E2BB681B6803F0040377
:102D6000002B44D03B6ADA68754B1340BA68526A4C
:102D70001A433B6ADA603B6ADB6843F480323B6AA1
:102D8000DA60FB681B681A6EFB681B6842F48012ED
:102D90001A66BB681B6803F00803002B27D03B6A48
:102DA0009B689AB2BB68DB6A1B041A433B6A9A6051
:102DB0003B6ADB6843F400323B6ADA603B6ADB68FB
:102DC00023F44022BB681B6B1A433B6ADA60FB6842
:102DD0001B685A6EFB681B6842F480125A66FB68D7
:102DE0001B681A6DFB681B6842F080621A65BB683D
:102DF0001B6803F01003002B0ED03B6A9A68514BFE
:102E00001340BA6892691A433B6A9A603B6ADB686E
:102E100043F080623B6ADA60BB681B6803F004031E
:102E2000002B05D1BB681B6803F01003002B36D0C4
:102E30003B6ADB6843F080423B6ADA60BFF35F8F36
:102E400000BF3B6ADB6843F000423B6ADA60FB6A22
:102E50000133FB62FB6A032B02D9FB6A043BFB6272
:102E60007B69FA6A53F822303B627B6A01337B62EA
:102E70003B6ADB6803F00043B3F1004F0FD17B697D
:102E80003A6953F822303B62BFF35F8F00BF3B6A61
:102E9000DB6823F000423B6ADA600223B6E17B6A1A
:102EA00001337B62FB691B681A463B6A1A603B6A06
:102EB0009A68244B1340FA6952681A433B6A9A6035
:102EC000FB699B68002B12D0FB699B68FB61FB6967
:102ED0001B681A463B6A5A603B6A9A681A4B134051
:102EE000FA69526812041A433B6A9A6008E03B6A26
:102EF00000225A603B6A9A68134B13403A6A936007
:102F0000BB681B6803F01003002B21D03B6ADB6811
:102F100023F4F002BB681B6ADB041A433B6ADA60E5
:102F20003B6ADA68094B1340BA68D2691A433B6AB4
:102F3000DA603B6ADB6843F480223B6ADA602EE0A9
:102F40000000FFFF00C0FFFFFFFF00C00000FCFF0C
:102F50003B6ADA687B4B1340BA6852681A433B6A93
:102F6000DA60BB681B6803F00103002B08D03B6AE2
:102F7000DB6823F44032BB685B691A433B6ADA6062
:102F8000BB681B6803F02003002B08D03B6ADB689A
:102F900023F04062BB681B691A433B6ADA60BB6876
:102FA0001B6803F00403002B08D03B6A9B6823F4E2
:102FB0004042BB689B6A1A433B6A9A603B6ADB6883
:102FC00043F000523B6ADA603B6ADB6823F08042E0
:102FD0003B6ADA60BFF35F8F00BF3B6ADB6843F098
:102FE00000423B6ADA60BB681B6803F00203002BF7
:102FF00000F0DA803B6ADB6823F06072BB68DB6854
:103000001A433B6ADA60CFE03B6ADB6823F0805208
:103010003B6ADA60FB6A0133FB62FB6A032B02D96D
:10302000FB6A043BFB627B69FA6A53F822303B621D
:103030003B6ADB6823F000523B6ADA603B6ADB687C
:1030400003F00043B3F1004F07D07A69FB6A043301
:103050009B0013445B68002B29D03B69FB627B69B2
:10306000FA6A53F822303B620023BB6219E0BFF3D7
:103070005F8F00BF3B6ADB6823F000423B6ADA6087
:10308000FB6A0133FB62FB6A032B02D9FB6A043B38
:10309000FB627B69FA6A53F822303B62BB6A0133F8
:1030A000BB62BA6A7B6A9A42E1D30223AEE07B6AD2
:1030B00001337B62FB699B68FB61FB691B681A46F5
:1030C0003B6A1A603B6A9A681F4B1340FA69526860
:1030D0001A433B6A9A60FB699B68002B12D0FB691C
:1030E0009B68FB61FB691B681A463B6A5A603B6A36
:1030F0009A68164B1340FA69526812041A433B6AE5
:103100009A6008E03B6A00225A603B6A9A680F4B5B
:1031100013403A6A9360BB681B6803F01003002BEE
:1031200018D03B6ADA680A4B1340BA68D2691A436E
:103130003B6ADA603B6ADB6843F480223B6ADA6010
:1031400020E000BF0080FFFF00C0FFFFFFFF00C0C6
:103150000000FCFF3B6ADA682F4B1340BA685268E4
:103160001A433B6ADA60BB681B6803F00103002B5B
:1031700008D03B6ADB6823F44032BB685B691A43C2
:103180003B6ADA60BB690133BB61BFF35F8F00BF8D
:103190003B6ADB6843F000423B6ADA603B6ADB680B
:1031A00023F080423B6ADA60FB699B68002B7FF466
:1031B0002BAF7B68002B06D03B6A9B6843F0004234
:1031C0003B6A9A6005E03B6A9B6823F000423B6AD9
:1031D0009A603B6ADB6843F080523B6ADA607B6945
:1031E0005A6A7969FB6A04339B000B445A607B6915
:1031F000FA6A1A6172B600BF7B699A6ABB691344A6
:103200005A1C7B699A6262B600BF002318463437A5
:10321000BD465DF8047B70470080FFFF80B489B035
:1032200000AF786039600023FB61864B7B618CE1E5
:103230003B681A680121FB6901FA03F313403B6103
:103240003B69002B00F07E813B685B6803F0030361
:10325000012B05D03B685B6803F00303022B30D1E0
:103260007B689B68BB61FB695B00032202FA03F386
:10327000DB43BA691340BB613B68DA68FB695B00FA
:1032800002FA03F3BA691343BB617B68BA699A60B7
:103290007B685B68BB610122FB6902FA03F3DB43D5
:1032A000BA691340BB613B685B681B0903F001020C
:1032B000FB6902FA03F3BA691343BB617B68BA691D
:1032C0005A603B685B6803F00303032B17D07B68ED
:1032D000DB68BB61FB695B00032202FA03F3DB439B
:1032E000BA691340BB613B689A68FB695B0002FAEC
:1032F00003F3BA691343BB617B68BA69DA603B6860
:103300005B6803F00303022B23D1FB69DA087B68B7
:10331000083253F82230BB61FB6903F007039B00BE
:103320000F2202FA03F3DB43BA691340BB613B6827
:103330001A69FB6903F007039B0002FA03F3BA69F9
:103340001343BB61FB69DA087B680832B96943F84B
:1033500022107B681B68BB61FB695B00032202FAD9
:1033600003F3DB43BA691340BB613B685B6803F05E
:103370000302FB695B0002FA03F3BA691343BB6102
:103380007B68BA691A603B685B6803F44033002BC2
:1033900000F0D8802C4BD3F8F4302B4A43F00203D2
:1033A000C2F8F430284BD3F8F43003F00203FB608A
:1033B000FB68264AFB699B08023352F82330BB6145
:1033C000FB6903F003039B000F2202FA03F3DB43C4
:1033D000BA691340BB617B681D4A93424AD07B683F
:1033E0001C4A93422BD07B681B4A934225D07B68B2
:1033F0001A4A93421FD07B68194A934219D07B68BE
:10340000184A934213D07B68174A93420DD07B68C9
:10341000164A934207D07B68154A934201D109238B
:1034200029E00A2327E0072325E0062323E00523DC
:1034300021E004231FE003231DE002231BE00123FE
:1034400019E000BF800000580044025800040058F2
:10345000000002580004025800080258000C0258EC
:10346000001002580014025800180258001C02589C
:10347000002402580023FA6902F0030292009340EC
:10348000BA691343BB613849FB699B080233BA69C7
:1034900041F823204FF0B0431B68BB613B69DB431D
:1034A000BA691340BB613B685B6803F48013002B6F
:1034B00003D0BA693B691343BB614FF0B042BB69AB
:1034C00013604FF0B0435B68BB613B69DB43BA6993
:1034D0001340BB613B685B6803F40013002B03D00F
:1034E000BA693B691343BB614FF0B042BB6953609B
:1034F0007B695B68BB613B69DB43BA691340BB61B5
:103500003B685B6803F40033002B03D0BA693B6966
:103510001343BB617B69BA695A607B691B68BB61F5
:103520003B69DB43BA691340BB613B685B6803F4EA
:103530008033002B03D0BA693B691343BB617B69BD
:10354000BA691A60FB690133FB613B681A68FB6961
:1035500022FA03F3002B7FF46BAE00BF00BF2437C9
:10356000BD465DF8047B70470004005880B483B00A
:1035700000AF78600B467B8013467B707B78002B16
:1035800003D07A887B689A6103E07B881A047B68A1
:103590009A6100BF0C37BD465DF8047B704780B46C
:1035A00085B000AF78600B467B807B685B69FB6011
:1035B0007A88FB6813401A04FB68D9437B880B4068
:1035C0001A437B689A6100BF1437BD465DF8047BDF
:1035D0007047000080B584B000AF7860194BDB689D
:1035E00003F00403042B0AD0164BDB6803F0070337
:1035F0007A689A4201D001231FE000231DE0114B9D
:10360000DB6823F007020F497B681343CB60FDF7AB
:103610004DFFF86009E0FDF749FF0246FB68D31A49
:10362000B3F57A7F01D9012307E0064B5B6803F409
:103630000053B3F5005FEED1002318461037BD46A6
:1036400080BD00BF0048025880B58CB000AF7860E4
:103650007B68002B01D101239DE37B681B6803F08D
:103660000103002B00F08780884B1B6903F03803AF
:10367000FB62864B9B6ABB62FB6A102B07D0FB6A1E
:10368000182B10D1BB6A03F00303022B0BD17F4B25
:103690001B6803F40033002B6CD07B685B68002B45
:1036A00068D1012377E37B685B68B3F5803F06D17F
:1036B000764B1B68754A43F4803313602EE07B68B9
:1036C0005B68002B0CD1714B1B68704A23F480336C
:1036D00013606E4B1B686D4A23F4802313601DE05A
:1036E0007B685B68B3F5A02F0CD1684B1B68674AF9
:1036F00043F480231360654B1B68644A43F48033B2
:1037000013600BE0614B1B68604A23F48033136045
:103710005E4B1B685D4A23F4802313607B685B6803
:10372000002B13D0FDF7C2FE786208E0FDF7BEFE65
:1037300002467B6AD31A642B01D903232BE3534B34
:103740001B6803F40033002BF0D014E0FDF7AEFE4D
:10375000786208E0FDF7AAFE02467B6AD31A642B62
:1037600001D9032317E3494B1B6803F40033002BF3
:10377000F0D100E000BF7B681B6803F00203002B60
:1037800000F08C80414B1B6903F038033B623F4BD8
:103790009B6AFB613B6A002B07D03B6A182B37D131
:1037A000FB6903F00303002B32D1384B1B6803F095
:1037B0000403002B05D07B68DB68002B01D10123BB
:1037C000E9E2324B1B6823F019027B68DB682F4962
:1037D00013430B60FDF76AFE786208E0FDF766FEB2
:1037E00002467B6AD31A022B01D90323D3E2274B6B
:1037F0001B6803F00403002BF0D0244B5B6823F01C
:10380000FE427B681B691B06204913434B6045E061
:103810007B68DB68002B26D01C4B1B6823F0190249
:103820007B68DB68194913430B60FDF73FFE786244
:1038300008E0FDF73BFE02467B6AD31A022B01D952
:103840000323A8E2114B1B6803F00403002BF0D004
:103850000E4B5B6823F0FE427B681B691B060B491D
:1038600013434B601AE0094B1B68084A23F001031D
:103870001360FDF71BFE78620AE0FDF717FE0246B3
:103880007B6AD31A022B03D9032384E20044025833
:10389000964B1B6803F00403002BEED17B681B687A
:1038A00003F01003002B6AD0904B1B6903F0380320
:1038B000BB618E4B9B6A7B61BB69082B07D0BB69E0
:1038C000182B1BD17B6903F00303012B16D1874B07
:1038D0001B6803F48073002B05D07B68DB69802BA9
:1038E00001D0012357E2814BDB6823F07C527B68D7
:1038F0001B6A1B067D491343CB6040E07B68DB6994
:10390000002B23D0794B1B68784A43F08003136067
:10391000FDF7CCFD786208E0FDF7C8FD02467B6A42
:10392000D31A022B01D9032335E2704B1B6803F431
:103930008073002BF0D06D4BDB6823F07C527B68EA
:103940001B6A1B0669491343CB6018E0674B1B6871
:10395000664A23F080031360FDF7A8FD786208E053
:10396000FDF7A4FD02467B6AD31A022B01D903237B
:1039700011E25E4B1B6803F48073002BF0D17B686F
:103980001B6803F00803002B36D07B685B69002BB3
:1039900019D0564B5B6F554A43F001035367FDF74F
:1039A00085FD786208E0FDF781FD02467B6AD31A47
:1039B000022B01D90323EEE14C4B5B6F03F00203B2
:1039C000002BF0D018E0494B5B6F484A23F001030D
:1039D0005367FDF76BFD786208E0FDF767FD02466F
:1039E0007B6AD31A022B01D90323D4E13F4B5B6FCF
:1039F00003F00203002BF0D17B681B6803F0200367
:103A0000002B36D07B689B69002B19D0374B1B6885
:103A1000364A43F480531360FDF748FD786208E0AE
:103A2000FDF744FD02467B6AD31A022B01D903231A
:103A3000B1E12E4B1B6803F40053002BF0D018E0CB
:103A40002A4B1B68294A23F480531360FDF72EFD8F
:103A5000786208E0FDF72AFD02467B6AD31A022B42
:103A600001D9032397E1214B1B6803F40053002B7A
:103A7000F0D17B681B6803F00403002B00F0868004
:103A80001B4B1B681A4A43F480731360FDF70EFD4D
:103A9000786208E0FDF70AFD02467B6AD31A642BC0
:103AA00001D9032377E1124B1B6803F48073002BC9
:103AB000F0D07B689B68012B06D10C4B1B6F0B4A27
:103AC00043F00103136732E07B689B68002B11D140
:103AD000064B1B6F054A23F001031367034B1B6F53
:103AE000024A23F00403136721E000BF0044025898
:103AF000004802587B689B68052B0CD1834B1B6FD9
:103B0000824A43F004031367804B1B6F7F4A43F0E4
:103B1000010313670BE07D4B1B6F7C4A23F001030D
:103B200013677A4B1B6F794A23F0040313677B6892
:103B30009B68002B15D0FDF7B9FC78620AE0FDF711
:103B4000B5FC02467B6AD31A41F28832934201D90E
:103B5000032320E16D4B1B6F03F00203002BEED01B
:103B600014E0FDF7A3FC78620AE0FDF79FFC024633
:103B70007B6AD31A41F28832934201D903230AE1C6
:103B8000624B1B6F03F00203002BEED17B685B6A74
:103B9000002B00F0FF805D4B1B6903F03803182BEE
:103BA00000F0BA807B685B6A022B40F09580574B2F
:103BB0001B68564A23F080731360FDF777FC786228
:103BC00008E0FDF773FC02467B6AD31A022B01D989
:103BD0000323E0E04D4B1B6803F00073002BF0D192
:103BE0004A4B9A6A4A4B13407A68916A7A68D26A59
:103BF00012010A43454913438B627B681B6B013BEF
:103C0000C3F308027B685B6B013B5B029BB21A4308
:103C10007B689B6B013B1B0403F4FE031A437B6828
:103C2000DB6B013B1B0603F0FE43384913430B6378
:103C3000364BDB6A354A23F00103D362334B5A6BB0
:103C4000344B13407A68926CD200304913434B6373
:103C50002E4BDB6A23F00C027B681B6C2B49134351
:103C6000CB622A4BDB6A23F002027B685B6C27493C
:103C70001343CB62254BDB6A244A43F48033D3627F
:103C8000224BDB6A214A43F40033D3621F4BDB6AC9
:103C90001E4A43F48023D3621C4BDB6A1B4A43F069
:103CA0000103D362194B1B68184A43F080731360F9
:103CB000FDF7FCFB786208E0FDF7F8FB02467B6A43
:103CC000D31A022B01D9032365E0104B1B6803F0C4
:103CD0000073002BF0D05DE00C4B1B680B4A23F007
:103CE00080731360FDF7E2FB786208E0FDF7DEFB0E
:103CF00002467B6AD31A022B01D903234BE0034B04
:103D00001B6803F00073002BF0D143E0004402581D
:103D10000CFCFFFF0700FFFF214B9B6A3B61204B20
:103D20001B6BFB607B685B6A012B31D03B6903F046
:103D300003027B689B6A9A422AD13B691B0903F004
:103D40003F027B68DB6A9A4222D1FB68C3F3080218
:103D50007B681B6B013B9A421AD1FB685B0A03F03C
:103D60007F027B685B6B013B9A4211D1FB681B0CA5
:103D700003F07F027B689B6B013B9A4208D1FB6892
:103D80001B0E03F07F027B68DB6B013B9A4201D084
:103D9000012300E0002318463037BD4680BD00BF38
:103DA0000044025880B586B000AF786039607B6807
:103DB000002B01D101239CE18A4B1B6803F00F0308
:103DC0003A689A4210D9874B1B6823F00F02854945
:103DD0003B6813430B60834B1B6803F00F033A6887
:103DE0009A4201D0012384E17B681B6803F004033D
:103DF000002B10D07B681A697B4B9B6903F0700322
:103E00009A4208D9784B9B6923F070027B681B6942
:103E1000754913438B617B681B6803F00803002B13
:103E200010D07B685A69704BDB6903F070039A42CB
:103E300008D96D4BDB6923F070027B685B696A49C6
:103E40001343CB617B681B6803F01003002B10D079
:103E50007B689A69644BDB6903F4E0639A4208D992
:103E6000614BDB6923F4E0627B689B695E49134325
:103E7000CB617B681B6803F02003002B10D07B68AC
:103E8000DA69594B1B6A03F070039A4208D9564B02
:103E90001B6A23F070027B68DB69534913430B6292
:103EA0007B681B6803F00203002B10D07B68DA6884
:103EB0004D4B9B6903F00F039A4208D94A4B9B690B
:103EC00023F00F027B68DB68474913438B617B68F3
:103ED0001B6803F00103002B55D0434B9B6923F46F
:103EE00070627B689B68404913438B617B685B68A9
:103EF000022B07D13C4B1B6803F40033002B21D16C
:103F00000123F6E07B685B68032B07D1364B1B6807
:103F100003F00073002B15D10123EAE07B685B6896
:103F2000012B07D1304B1B6803F48073002B09D1A0
:103F30000123DEE02C4B1B6803F00403002B01D1AE
:103F40000123D6E0284B1B6923F007027B685B68DE
:103F5000254913430B61FDF7A9FA78610AE0FDF7E3
:103F6000A5FA02467B69D31A41F28832934201D9FD
:103F70000323BEE01C4B1B6903F038027B685B68BF
:103F8000DB009A42EBD17B681B6803F00203002B35
:103F900010D07B68DA68144B9B6903F00F039A42D8
:103FA00008D2114B9B6923F00F027B68DB680E4936
:103FB00013438B610B4B1B6803F00F033A689A4263
:103FC00014D2084B1B6823F00F0206493B681343C9
:103FD0000B60044B1B6803F00F033A689A4205D04C
:103FE000012386E000200052004402587B681B68D1
:103FF00003F00403002B10D07B681A693F4B9B69C8
:1040000003F070039A4208D23C4B9B6923F0700284
:104010007B681B69394913438B617B681B6803F01C
:104020000803002B10D07B685A69344BDB6903F01E
:1040300070039A4208D2314BDB6923F070027B682F
:104040005B692E491343CB617B681B6803F0100347
:10405000002B10D07B689A69284BDB6903F4E0637E
:104060009A4208D2254BDB6923F4E0627B689B69A6
:1040700022491343CB617B681B6803F02003002BAC
:1040800010D07B68DA691D4B1B6A03F070039A42FB
:1040900008D21A4B1B6A23F070027B68DB69174950
:1040A00013430B6200F034F80246144B9B691B0A61
:1040B00003F00F031249CB5C03F01F0322FA03F352
:1040C0003B610E4B9B6903F00F030D4AD35C03F079
:1040D0001F033A6922FA03F30A4A13600A4A3B694A
:1040E00013600A4B1B681846FDF796F90346FB73ED
:1040F000FB7B18461837BD4680BD00BF0044025800
:104100008468010804000024000000240800002442
:1041100080B489B000AFB34B1B6903F03803182B90
:1041200000F2558101A252F823F000BF914100082E
:10413000CF430008CF430008CF430008CF43000817
:10414000CF430008CF430008CF430008B741000821
:10415000CF430008CF430008CF430008CF430008F7
:10416000CF430008CF430008CF430008BD410008FB
:10417000CF430008CF430008CF430008CF430008D7
:10418000CF430008CF430008CF430008C3410008D5
:10419000944B1B6803F02003002B09D0914B1B6844
:1041A000DB0803F00303904A22FA03F3BB6111E139
:1041B0008D4BBB610EE18D4BBB610BE18C4BBB6149
:1041C00008E1884B9B6A03F003037B61854B9B6A84
:1041D0001B0903F03F033B61824BDB6A03F00103E1
:1041E000FB60804B5B6BDB08C3F30C03FA6802FBDC
:1041F00003F307EE903AF8EE677AC7ED027A3B696F
:10420000002B00F0E1807B69022B00F083807B694A
:10421000022B00F2A1807B69002B03D07B69012B6C
:1042200056D099E06F4B1B6803F02003002B2DD074
:104230006C4B1B68DB0803F003036B4A22FA03F3A1
:104240007B607B6807EE903AF8EE676A3B6907EEA1
:10425000903AF8EE677A86EEA77A624B1B6BC3F34F
:10426000080307EE903AF8EE676A97ED026ADFED11
:10427000615AC6EE257A76EEA77AF7EE006A77EEF7
:10428000A67A67EE277AC7ED077A87E03B6907EEE3
:10429000903AF8EE677ADFED586A86EEA77A514BCE
:1042A0001B6BC3F3080307EE903AF8EE676A97EDCD
:1042B000026ADFED505AC6EE257A76EEA77AF7EE5F
:1042C000006A77EEA67A67EE277AC7ED077A65E08F
:1042D0003B6907EE903AF8EE677ADFED486A86EEC2
:1042E000A77A404B1B6BC3F3080307EE903AF8EE36
:1042F000676A97ED026ADFED3F5AC6EE257A76EEE1
:10430000A77AF7EE006A77EEA67A67EE277AC7ED0E
:10431000077A43E03B6907EE903AF8EE677ADFED03
:10432000386A86EEA77A2F4B1B6BC3F3080307EEA0
:10433000903AF8EE676A97ED026ADFED2E5AC6EE04
:10434000257A76EEA77AF7EE006A77EEA67A67EE20
:10435000277AC7ED077A21E03B6907EE903AF8EE3D
:10436000677ADFED266A86EEA77A1E4B1B6BC3F3D6
:10437000080307EE903AF8EE676A97ED026ADFED00
:104380001D5AC6EE257A76EEA77AF7EE006A77EE2A
:10439000A67A67EE277AC7ED077A00BF114B1B6B31
:1043A0005B0A03F07F0301333B603B6807EE903A02
:1043B000B8EE677AD7ED076AC6EE877AFCEEE77A41
:1043C00017EE903ABB6105E00023BB6102E0074BAA
:1043D000BB6100BFBB6918462437BD465DF8047B4E
:1043E000704700BF004402580090D00300093D0010
:1043F00000127A00000000460024744C0024744A25
:104400000024F44A80B582B000AFFFF781FE024677
:10441000104B9B691B0A03F00F030F49CB5C03F0A1
:104420001F0322FA03F37B600A4B9B6903F00F031F
:10443000094AD35C03F01F037A6822FA03F3074AA0
:104440001360074A7B681360044B1B6818460837E3
:10445000BD4680BD00440258846801080400002461
:104460000000002480B582B000AF78607B68002B2C
:1044700001D1012349E07B6893F83D30DBB2002B8A
:1044800006D17B68002283F83C207868FCF75EFA4E
:104490007B68022283F83D207B681A687B680433BE
:1044A0001946104600F0FCFA7B68012283F8482088
:1044B0007B68012283F83E207B68012283F83F203D
:1044C0007B68012283F840207B68012283F8412029
:1044D0007B68012283F842207B68012283F8432015
:1044E0007B68012283F844207B68012283F8452001
:1044F0007B68012283F846207B68012283F84720ED
:104500007B68012283F83D20002318460837BD460A
:1045100080BD000080B485B000AF78607B6893F800
:104520003D30DBB2012B01D001235EE07B6802222B
:1045300083F83D207B681B68DA687B681B6842F063
:104540000102DA607B681B682B4A93422CD07B689F
:104550001B68B3F1804F27D07B681B68274A9342C2
:1045600022D07B681B68264A93421DD07B681B685B
:10457000244A934218D07B681B68234A934213D085
:104580007B681B68214A93420ED07B681B68204AD7
:10459000934209D07B681B681E4A934204D07B6813
:1045A0001B681D4A934215D17B681B689A681B4B98
:1045B0001340FB60FB68062B15D0FB68B3F5803F0A
:1045C00011D07B681B681A687B681B6842F0010287
:1045D0001A6008E07B681B681A687B681B6842F0F9
:1045E00001021A6000E000BF002318461437BD46E0
:1045F0005DF8047B704700BF0000014000040040EC
:1046000000080040000C0040000401400018004079
:104610000040014000E0004000E4004007000100CD
:1046200080B582B000AF78607B681B681B6903F0BF
:104630000203022B22D17B681B68DB6803F00203B4
:10464000022B1BD17B681B686FF002021A617B682A
:1046500001221A777B681B689B6903F00303002B18
:1046600003D0786800F0FEF905E0786800F0F0F912
:10467000786800F001FA7B6800221A777B681B6873
:104680001B6903F00403042B22D17B681B68DB68E1
:1046900003F00403042B1BD17B681B686FF004023A
:1046A0001A617B6802221A777B681B689B6903F496
:1046B0004073002B03D0786800F0D4F905E07868E7
:1046C00000F0C6F9786800F0D7F97B6800221A7705
:1046D0007B681B681B6903F00803082B22D17B68E9
:1046E0001B68DB6803F00803082B1BD17B681B6881
:1046F0006FF008021A617B6804221A777B681B68D6
:10470000DB6903F00303002B03D0786800F0AAF9FB
:1047100005E0786800F09CF9786800F0ADF97B68F6
:1047200000221A777B681B681B6903F01003102BAB
:1047300022D17B681B68DB6803F01003102B1BD1B0
:104740007B681B686FF010021A617B6808221A7779
:104750007B681B68DB6903F44073002B03D0786827
:1047600000F080F905E0786800F072F9786800F0F0
:1047700083F97B6800221A777B681B681B6903F04A
:104780000103012B0ED17B681B68DB6803F001037A
:10479000012B07D17B681B686FF001021A617868F2
:1047A000FCF784FA7B681B681B6903F08003802B8D
:1047B0000ED17B681B68DB6803F08003802B07D178
:1047C0007B681B686FF080021A61786800F052FB0A
:1047D0007B681B681B6903F48073B3F5807F0ED17F
:1047E0007B681B68DB6803F08003802B07D17B6844
:1047F0001B686FF480721A61786800F045FB7B6873
:104800001B681B6903F04003402B0ED17B681B68BB
:10481000DB6803F04003402B07D17B681B686FF017
:1048200040021A61786800F031F97B681B681B69E7
:1048300003F02003202B0ED17B681B68DB6803F09C
:104840002003202B07D17B681B686FF020021A61C0
:10485000786800F005FB00BF0837BD4680BD00004A
:1048600080B584B000AF786039600023FB737B684B
:1048700093F83C30012B01D10223DCE07B6801225C
:1048800083F83C207B68022283F83D207B681B680C
:104890009B68BB60BA686A4B1340BB60BB6823F47B
:1048A0007F43BB607B681B68BA689A603B681B6883
:1048B000644A934200F0A980624A934200F2AE80BB
:1048C000614A934200F0A1805F4A934200F2A680C1
:1048D0005E4A934200F099805C4A934200F29E80C7
:1048E000B3F1101F00F09180B3F1101F00F2968019
:1048F000B3F5801F00F08980B3F5801F00F28E8031
:10490000B3F5005F3ED0B3F5005F00F28780B3F5EA
:10491000805F00F08680B3F5805F7FD8702B1AD05F
:10492000702B7BD8602B50D0602B77D8502B3CD08D
:10493000502B73D8402B58D0402B6FD8302B64D0DD
:10494000302B6BD8202B60D0202B67D8002B5CD06D
:10495000102B5AD062E07B6818683B6899683B6806
:104960005A683B68DB6800F0BFF97B681B689B688E
:10497000BB60BB6843F07703BB607B681B68BA68A9
:104980009A604FE07B6818683B6899683B685A6892
:104990003B68DB6800F0A8F97B681B689A687B6855
:1049A0001B6842F480429A603CE07B6818683B6870
:1049B00059683B68DB681A4600F018F97B681B6889
:1049C0005021184600F072F92CE07B6818683B68AB
:1049D00059683B68DB681A4600F037F97B681B684A
:1049E0006021184600F062F91CE07B6818683B689B
:1049F00059683B68DB681A4600F0F8F87B681B686A
:104A00004021184600F052F90CE07B681A683B68B8
:104A10001B681946104600F049F903E00123FB73B7
:104A200000E000BF7B68012283F83D207B68002204
:104A300083F83C20FB7B18461037BD4680BD00BF85
:104A400088FFCEFF40001000300010002000100052
:104A500080B483B000AF786000BF0C37BD465DF80E
:104A6000047B704780B483B000AF786000BF0C3720
:104A7000BD465DF8047B704780B483B000AF7860BA
:104A800000BF0C37BD465DF8047B704780B483B02F
:104A900000AF786000BF0C37BD465DF8047B7047FF
:104AA00080B485B000AF786039607B681B68FB60BC
:104AB0007B68444A934213D07B68B3F1804F0FD098
:104AC0007B68414A93420BD07B68404A934207D0AF
:104AD0007B683F4A934203D07B683E4A934208D1A9
:104AE000FB6823F07003FB603B685B68FA68134364
:104AF000FB607B68334A934227D07B68B3F1804FD9
:104B000023D07B68304A93421FD07B682F4A934260
:104B10001BD07B682E4A934217D07B682D4A934264
:104B200013D07B682C4A93420FD07B682B4A934268
:104B30000BD07B682A4A934207D07B68294A93426C
:104B400003D07B68284A934208D1FB6823F4407362
:104B5000FB603B68DB68FA681343FB60FB6823F08B
:104B600080023B685B691343FB607B68FA681A60EC
:104B70003B689A687B68DA623B681A687B689A626D
:104B80007B68104A93420FD07B68124A93420BD045
:104B90007B68114A934207D07B68104A934203D046
:104BA0007B680F4A934203D13B681A697B681A639A
:104BB0007B6801225A6100BF1437BD465DF8047B53
:104BC000704700BF000001400004004000080040A2
:104BD000000C00400004014000400140004401403E
:104BE0000048014000E0004000E4004080B487B08D
:104BF00000AFF860B9607A60FB681B6A7B61FB6894
:104C00001B6A23F00102FB681A62FB689B693B6127
:104C10003B6923F0F0033B617B681B013A69134356
:104C20003B617B6923F00A037B617A69BB681343AC
:104C30007B61FB683A699A61FB687A691A6200BF16
:104C40001C37BD465DF8047B704780B487B000AF69
:104C5000F860B9607A60FB681B6A23F01002FB6899
:104C60001A62FB689B697B61FB681B6A3B617B691D
:104C700023F470437B617B681B037A6913437B6178
:104C80003B6923F0A0033B61BB681B013A691343F6
:104C90003B61FB687A699A61FB683A691A6200BFF6
:104CA0001C37BD465DF8047B7047000080B485B0BA
:104CB00000AF786039607B689B68FB60FA68094BDD
:104CC0001340FB603A68FB68134343F00703FB6043
:104CD0007B68FA689A6000BF1437BD465DF8047BB4
:104CE000704700BF8FFFCFFF80B487B000AFF86080
:104CF000B9607A603B60FB689B687B617B6923F4E9
:104D00007F437B613B681A027B681A43BB6813438D
:104D10007A6913437B61FB687A699A6000BF1C372C
:104D2000BD465DF8047B704780B485B000AF786005
:104D300039607B6893F83C30012B01D1022377E086
:104D40007B68012283F83C207B68022283F83D20A7
:104D50007B681B685B68FB607B681B689B68BB604B
:104D60007B681B68354A934204D07B681B68344AD1
:104D7000934208D1FB6823F47003FB603B685B68D7
:104D8000FA681343FB60FB6823F07003FB603B6829
:104D90001B68FA681343FB607B681B68FA685A60FB
:104DA0007B681B68254A93422CD07B681B68B3F153
:104DB000804F27D07B681B68224A934222D07B68B1
:104DC0001B68214A93421DD07B681B681F4A93428F
:104DD00018D07B681B681A4A934213D07B681B6803
:104DE0001B4A93420ED07B681B681A4A934209D033
:104DF0007B681B68184A934204D07B681B68174A7B
:104E000093420CD1BB6823F08003BB603B689B6876
:104E1000BA681343BB607B681B68BA689A607B689A
:104E2000012283F83D207B68002283F83C20002388
:104E300018461437BD465DF8047B704700000140FA
:104E4000000401400004004000080040000C004045
:104E5000001800400040014000E0004000E4004035
:104E600080B483B000AF786000BF0C37BD465DF8FA
:104E7000047B704780B483B000AF786000BF0C370C
:104E8000BD465DF8047B704780B483B000AF7860A6
:104E900000BF0C37BD465DF8047B704780B584B019
:104EA00004AF00F01FFD194B00221A60184B0022BE
:104EB0001A60184B00221A60174B0293174B01938C
:104EC00000230093134B124A1049154801F0F2F9E0
:104ED000134801F0A9FB124B93F831309B0803F003
:104EE0000103DBB2002B03D00D4801F0ADFB02E063
:104EF0000B4801F015FC0B49094801F0ABFC0848D0
:104F000009F09EFC00BFBD4680BD00BF4C010024DF
:104F10005001002454010024FD230108E151000840
:104F200014010024294F000880B483B000AF7860DA
:104F300000BF0C37BD465DF8047B704780B584B078
:104F400000AF78600023FB733F4B404A1A60002398
:104F50003B7280237B72E123BB720023FB72002330
:104F60003B7300237B73384A07F108035360364BC9
:104F700001221A72344B364ADA60334B354A1A61D1
:104F8000314B40F2F4525A612F48FCF73BFC034688
:104F9000FB733822002130480DF062FB2E4B21229A
:104FA0001A602D4B4FF440325A612B4B00221A618C
:104FB0002A4801F047F87B68062283F83020224B0C
:104FC0005B681A787B6883F82A201F4B5B685A78E5
:104FD0007B6883F82B201C4B5B689A787B6883F88E
:104FE0002C20194B5B68DA787B6883F82D20164BF0
:104FF0005B681A797B6883F82E20134B5B685A79BB
:105000007B6883F82F207B6840F2DC521A857B682E
:1050100093F8313043F00A03DAB27B6883F8312029
:105020000F491048FCF75BF80E48FCF78AF8FB7B49
:10503000002B03D1786800F047FA01E0FBF766FC2B
:1050400000BF1037BD4680BD6001002400800240D3
:1050500000020030000000301002002494680108B3
:10506000100000244802002480B592B000AF7860A0
:10507000396000237B6400233B64002387F83F30C2
:1050800007F10C033022002118460DF0E9FA07F170
:105090000C033022002118460DF0E2FA3B683B6415
:1050A00045E07B6C032B02D96FF00B0355E03B6CA2
:1050B00059687A6C13465B0013449B0048333B44A9
:1050C0003C3B19603B6C5B8919467A6C13465B006C
:1050D00013449B0048333B44383B19607B6C002BE6
:1050E00011D07B6C5A1E07F10C00796C0B465B00EB
:1050F0000B449B00C11813465B0013449B004833CC
:105100003B44343B19603B6C1B68002B09D17A6C23
:1051100013465B0013449B0048333B44343B00225E
:105120001A607B6C01337B643B6C1B683B643B6C9B
:10513000002BB6D13B681B891A460A4B5A60094AB4
:1051400007F10C039360074A3B6853631422054937
:105150000548FCF7EFFC97F93F3018464837BD4645
:1051600080BD00BF100200246001002480B584B01F
:1051700000AF78600023FB60074B1B78002B05D144
:1051800007F10C0319460548FCF76BFDFB68184650
:105190001037BD4680BD00BF5C01002460010024C3
:1051A00080B584B000AF78600023FB607868FFF7BB
:1051B000DDFFF860FB68002B0AD07B681B6979680B
:1051C000F86898470346002B02D0F86801F0C2FE49
:1051D000FB68002BEAD100BF00BF1037BD4680BD81
:1051E00080B582B000AF78607B68002B06D10E4B93
:1051F0004FF4C2720D490E480DF03AFA7B687322E3
:1052000083F832207B68742283F833207B68094A54
:105210005A617B68084A9A617868FFF78FFE00231D
:1052200018460837BD4680BD043B0108203B0108F5
:10523000303B01080D0701086950000880B584B0B3
:1052400000AF78607B68FB60F968074800F0DCFF1E
:10525000064B1B78012B02D1044B00221A7000BFB1
:105260001037BD4680BD00BF946801085C01002472
:1052700080B500AFFCF71AF90346184680BD000060
:1052800080B58EB000AF786007F1240300221A6069
:105290005A609A60DA601A617B681B685D4A9342C3
:1052A00040F0B3805C4BD3F8D8305B4A43F4004302
:1052B000C2F8D830584BD3F8D83003F400433B62DF
:1052C0003B6A554BD3F8D830534A43F48033C2F885
:1052D000D830514BD3F8D83003F48033FB61FB69ED
:1052E0004D4BD3F8D8304C4A43F40033C2F8D83091
:1052F000494BD3F8D83003F40033BB61BB69464B4C
:10530000D3F8E030444A43F00403C2F8E030424BA3
:10531000D3F8E03003F004037B617B693E4BD3F8A4
:10532000E0303D4A43F00103C2F8E0303A4BD3F895
:10533000E03003F001033B613B69374BD3F8E030C9
:10534000354A43F00203C2F8E030334BD3F8E03083
:1053500003F00203FB60FB682F4BD3F8E0302E4ACA
:1053600043F04003C2F8E0302B4BD3F8E03003F0B9
:105370004003BB60BB6832237B620223BB62002315
:10538000FB6203233B630B237B6307F12403194672
:105390002248FDF743FF86237B620223BB62002382
:1053A000FB6203233B630B237B6307F12403194652
:1053B0001B48FDF733FF4FF400537B620223BB62AF
:1053C0000023FB6203233B630B237B6307F124036E
:1053D00019461448FDF722FF4FF420537B62022345
:1053E000BB620023FB6203233B630B237B6307F158
:1053F000240319460C48FDF711FF002200213D202F
:10540000FCF74FF93D20FCF766F900BF3837BD4681
:1054100080BD00BF008002400044025800080258CE
:1054200000000258000402580018025880B500AF6E
:105430000248FDF727F90023184680BD60010024CB
:1054400080B400AF00231846BD465DF8047B70476A
:1054500080B584B000AFF860B9607A607B68BA68E4
:10546000F9680748FCF778FE0346002B02D04FF09E
:10547000FF3300E0002318461037BD4680BD00BF53
:105480006001002480B584B000AFF860B9607A6034
:105490007B68BA68F9680748FCF7B2FE0346002B40
:1054A00002D04FF0FF3300E0002318461037BD460E
:1054B00080BD00BF6001002480B500AFFBF7F6FFA0
:1054C0000346184680BD000080B5A0B000AF7860EC
:1054D00007F10C036422002118460DF0C1F80023E7
:1054E0003B670023FB670023BB6700237B673A48C9
:1054F000FBF7CFFE38677B6893F831309B0803F0E9
:105500000103DBB2002B0CD03B6F012B09DC3348CD
:10551000FCF7C0FA786801F003F9786801F06AF9DD
:1055200055E07B6893F8313003F00403002B4ED133
:105530003B6F012B4BDD3B6F023B032B2AD801A2B3
:1055400052F823F0555500086755000877550008B4
:10555000875500084FF400537B674FF48043BB67C7
:105560000123FB6717E000237B674FF48043BB6791
:105570000123FB670FE04FF400537B670023BB67F9
:105580000123FB6707E000237B670023BB67012340
:10559000FB6700E000BFFB6F002B18D007F10C0386
:1055A00019460E48FCF780FE7B6F7B62BB6F3B6247
:1055B00007F10C0319460948FDF74AF80748FCF7BC
:1055C00007FA786801F040F8786801F0DBF800BF6E
:1055D0008037BD4680BD00BF480200246001002422
:1055E00080B586B002AF7860124800F09FFDF86089
:1055F000FB68002B14D0FB6803F120027B681A6063
:10560000FB680D4A1A617B681B6840F2F4520192F4
:105610000093FB6841220021002001F0E1FA05E03F
:10562000064B01221A707B6800221A6000BF1037F7
:10563000BD4680BD946801083D5200085C0100240D
:1056400080B48DB000AFF860B9607A607B80FB6891
:10565000BB62BB687B620023FB627B68203BFB6212
:10566000FB6A00221A60FB6A00221A81FB6A7A88B0
:105670005A81BB6A1B68002B03D1BB6AFA6A1A60A5
:1056800003E07B6A1B68FA6A1A607B6AFA6A1A602E
:10569000BB6A1B68FB6209E0FB6A1A897B881344BA
:1056A0009AB2FB6A1A81FB6A1B68FB62FB6A002BD9
:1056B000F2D17B887A683A62FB61FB69002B1DDDC1
:1056C0003B6A03F01F02FB691344BB613B6A7B61C9
:1056D000BFF34F8F00BF0D4A7B69C2F85C327B6914
:1056E00020337B61BB69203BBB61BB69002BF2DCD3
:1056F000BFF34F8F00BFBFF36F8F00BF00BF00BF6E
:105700003437BD465DF8047B704700BF00ED00E014
:1057100080B483B000AF0346FB80FB881B021AB243
:10572000FB881B0A9BB21BB213431BB29BB21846E9
:105730000C37BD465DF8047B704780B483B000AF82
:1057400078607B681A067B681B0203F47F031A43A8
:105750007B681B0A03F47F431A437B681B0E1343C9
:1057600018460C37BD465DF8047B704780B489B09D
:1057700000AF786039607B68FB610023FB81002308
:105780007B61FB6903F001033B613B69002B0DD09A
:105790003B68002B0ADDFA69531CFB6107F10E031D
:1057A000013312781A703B68013B3B60FB69BB61B7
:1057B0000AE0BB699A1CBA611B881A467B691344CC
:1057C0007B613B68023B3B603B68012BF1DC3B6843
:1057D000002B04DD07F10E03BA6912781A70FB89F9
:1057E0001A467B6913447B617B691A0C7B699BB207
:1057F00013447B617B691A0C7B699BB213447B6108
:105800003B69002B07D07B691B029AB27B691B0A9C
:10581000DBB213437B617B699BB218462437BD46DC
:105820005DF8047B704780B582B000AF78600B46AE
:105830007B807B8819467868FFF798FF0346DB4337
:105840009BB218460837BD4680BD80B586B000AF14
:1058500078600023FB6000237B617B683B612BE069
:105860003B695A683B695B8919461046FFF77EFF22
:1058700003461A467B6913447B617B691A0C7B697A
:105880009BB213447B613B695B8903F001039BB2CC
:10589000002B0ED0FB68002B0CBF01230023DBB2D2
:1058A000FB607B691B029AB27B691B0ADBB2134364
:1058B0007B613B691B683B613B69002BD0D1FB6876
:1058C000002B07D07B691B029AB27B691B0ADBB2F3
:1058D00013437B617B699BB2DB439BB2184618374D
:1058E000BD4680BD80B582B000AF00237B6000F074
:1058F000D5F800F0D7FB00F0D5FC07F067FF01F00A
:1059000059FE07F0D9FE00BF0837BD4680BD000034
:1059100080B483B000AF0346FB80054B1A68FB8858
:10592000134418460C37BD465DF8047B704700BF32
:105930008002002480B483B000AF7860054B1B6800
:105940007A68D31A9BB218460C37BD465DF8047BC3
:10595000704700BF8002002490B585B000AF78602A
:10596000454B1B687A689A4206D2444B40F2DF12DC
:10597000434944480CF07CFE434B1B687A689A42CA
:1059800006D33E4B4FF4F07240493E480CF070FE97
:105990007B681B79002B06D0384B40F2E1123C4962
:1059A00038480CF065FE7B681B88B3F5205F06D98C
:1059B000324B4FF4F272374932480CF059FE7B6893
:1059C0001B881846FFF7A4FFF8607A68FB689A42C4
:1059D00024D0FB681B79002B20D12B4B1B68FA6865
:1059E0009A421BD02C4B1B68FA689A4202D12A4A71
:1059F0007B681360FB681A887B681A80FB681B88C9
:105A0000B3F5205F0AD0FB681B881846FFF780FFBC
:105A100004467868FFF78EFF034663807B685B88E7
:105A20001846FFF775FFB860BA687B689A421FD0C6
:105A3000BB681B79002B1BD1174B1B687A689A42F5
:105A400002D1154ABB6813607B681A88BB681A804C
:105A50007B681B88B3F5205F0AD07B681B881846DB
:105A6000FFF756FF0446B868FFF764FF03466380FC
:105A700000BF1437BD4690BD80020024583B01088A
:105A8000883B0108A03B010884020024C83B0108B0
:105A9000E43B0108003C01088802002480B582B084
:105AA00000AF164B164A1A60144B1B687B607B686C
:105AB0004FF420521A807B6800225A807B680022B3
:105AC0001A714FF42050FFF723FF03460D4A13606D
:105AD0000C4B1B6801221A710A4B1B684FF42052B1
